:100000000000022099010000811A0000391A000046
:10001000391A0000391A0000391A0000391A000094
:10002000391A0000391A0000391A0000811A00003C
:10003000811A0000391A0000493300004D340000D5
:10004000811A0000811A0000811A0000811A000044
:10005000811A0000811A0000811A0000811A000034
:10006000811A0000811A0000811A0000811A000024
:10007000811A0000811A0000811A0000811A000014
:10008000811A0000811A0000811A0000811A000004
:10009000811A0000811A0000811A0000811A0000F4
:1000A000290D0000350D0000811A0000811A0000A2
:1000B000811A0000811A0000811A0000ED3500004D
:1000C000811A000019370000811A0000453800002D
:1000D000811A00003D390000811A0000811A0000D9
:1000E000811A0000811A0000811A0000811A0000A4
:1000F000811A0000811A0000811A0000811A000094
:10010000811A0000811A0000811A0000811A000083
:1001100099100000E5230000811A0000811A0000F8
:10012000811A0000811A0000811A0000811A000063
:10013000811A0000811A0000811A0000811A000053
:10014000811A0000811A0000353A0000811A00006F
:100150002D3B0000811A0000811A0000811A000066
:10016000811A0000811A0000410D0000811A000070
:10017000811A0000811A0000811A0000811A000013
:10018000811A0000811A0000811A0000811A000003
:10019000811A0000811A0000584B4CF2205210B511
:1001A0001A804DF628121A8000BF00BF01F06CFCC7
:1001B000534B4FF030621A60524A9A60524ADA60EA
:1001C000524B4FF470021A60514A136813F4807353
:1001D00004D150490B604FF4A85313604E4B1A786A
:1001E000110703D51A7842F008021A704B4B4C499C
:1001F0002A221A704B4A4C4B8B4204D252F8040FFD
:1002000043F8040BF8E7494B494900228B4202D2DC
:1002100043F8042BFAE74749474A002352F82300E2
:1002200041F823000133662BF8D1444B444A802126
:1002300003F8011B9342FBD1424B3E4A1A60424BEA
:100240008A221A70A3F5805324225A70A0221A70B1
:100250009A799207FCD59A79D406FCD43B4A9379D3
:1002600003F00C03082B394BF9D103221A714022F9
:100270005A719A799006FCD5344A9179334B4906E4
:10028000FBD5334A334911600221516020221A7094
:100290009A7902F00C020C2AFAD12F4B2F4A1A60DD
:1002A0002F4B304A1A6000225A60072243F8042C70
:1002B0002D4AC3F80C2D62B601F048FF154B1B68A0
:1002C000DA0705D5294801F0AFFC294B294A1A6005
:1002D000294B1B785B0609D5254C264B22689A4290
:1002E00004D1224801F0A0FC0023236031F00AFC75
:1002F00001F0D0FB01F0FEFAFEE700BF0E20054042
:1003000030800440823F04000100002B88ED00E0B3
:1003100010D0034014D0034002D0074000E0074053
:100320007414FF1F4C850400F806FF1F7814FF1F8C
:100330004030FF1F0002FF1F0000000000E400E04B
:1003400056E400E008ED00E00050064000400640A2
:10035000448004400000030104800440C0100500F4
:1003600014E000E0FF76010000002020CD8D055B49
:100370001CE00340A5C3945A00F00740FFFFFFFFB5
:10038000FFFFFFFFFFFFFFFFFFFFFFFFFFFFFFFF7D
:10039000FFFFFFFFFFFFFFFFFFFFFFFFFFFFFFFF6D
:1003A000FFFFFFFFFFFFFFFFFFFFFFFFFFFFFFFF5D
:1003B000FFFFFFFFFFFFFFFFFFFFFFFFFFFFFFFF4D
:1003C000FFFFFFFFFFFFFFFFFFFFFFFFFFFFFFFF3D
:1003D000FFFFFFFFFFFFFFFFFFFFFFFFFFFFFFFF2D
:1003E000FFFFFFFFFFFFFFFFFFFFFFFFFFFFFFFF1D
:1003F000FFFFFFFFFFFFFFFFFFFFFFFFFFFFFFFF0D
:10040000FFFFFFFFFFFFFFFFFFFFFFFFDEF9FFFF23
:1004100010B5054C237833B9044B13B10448AFF33E
:1004200000800123237010BD7814FF1F000000001E
:100430002C530400084B10B51BB108490848AFF312
:1004400000800848036803B910BD074B002BFBD0A0
:10045000BDE81040184700BF000000007C14FF1FDB
:100460002C5304007414FF1F00000000704700BFED
:10047000704700BF704700BF704700BF10B504460B
:10048000C068034B236008B101F040FB204610BD5B
:1004900008F503002DE9F041D0E90445214E82B072
:1004A000336800930A34009A45F1000500239D4209
:1004B00008BF94422CD233680193019B1A4C03610C
:1004C0001A4F00234D1E04F14008436115F8016FD7
:1004D00054F804EF1648B6454FF000034FF00A02F7
:1004E000314611D001F0D4F8114801F0B9F82B7859
:1004F00003EB4301C1EB011103EB81010912384603
:1005000000F082FE2B782360444507F10407DDD11B
:100510000921084802F048FD054801F0A1F802B0A1
:10052000BDE8F0818C15FF1F4807FF1FE814FF1F6F
:10053000DC08FF1F2CF5030070B51F4C1F4D04F1A4
:1005400040064FF416634FF47A7255F8041F2046A4
:1005500000F01CFE20462421043400F055FEB44275
:10056000EFD10C21164800F0F1FE182001F0CAFA74
:1005700040F2AA71044600F027FC124B23600022CF
:100580000023C4E9042321460F4800F05FFD0C203E
:1005900001F0B8FA40F20C71044600F015FC0B4B68
:1005A00009482360214600F051FD4FF49670BDE8E4
:1005B000704001F07DBD00BFE814FF1FF806FF1F6B
:1005C0003815FF1F1CF50300B014FF1F28F50300AA
:1005D000014800F017BC00BFB014FF1F10B5102178
:1005E000044601F097FA204610BD00BF38B51F48F9
:1005F0001F4C03F06BFD1F4A1F491C4803F040FBD2
:1006000028224FF0FF311D4800F050FE194A1C49C6
:100610001A4803F035FB1B4B164A1B4900251D6089
:100620005D609D60DD601D615D61184603F028FB23
:10063000164B104A1D605D609D60DD601D615D614F
:100640001149184603F01CFB04F150052046043400
:1006500000F098FDAC42F9D10D4800F087FB054A47
:100660000C490B48BDE8384003F00ABBC814FF1F13
:10067000E814FF1FF806FF1FE94000003815FF1FB0
:1006800079040000D014FF1F750400009814FF1FA8
:10069000B014FF1F7D0400000020704790F839203F
:1006A00090F83800101A704790F8383090F83920D8
:1006B0009A4205D95A1C034480F83820187E7047A6
:1006C0004FF0FF30704700BF90F8383090F8392075
:1006D0009A4286BF1B18187E4FF0FF30704700BF4C
:1006E000704700BF38B50546B0F85E0090B195F888
:1006F0005D301446C3F1210294420CD805F13B0051
:100700001844224601F0FEF895F85D30234485F840
:100710005D30204638BD012014462871EEE700BF49
:10072000B0F85E306BB190F85D30202B07D8C2185E
:10073000013380F85D30012082F83B1070470123BF
:1007400003710020704700BF0023426980F83830F1
:1007500080F8393080F85C3080F85D3080F85E30A9
:1007600080F85F3006CA30B40D68046943662A43D6
:1007700083660A60A370426990F861301649146874
:1007800013441D7A5B7B01EBC5051B026D6803F406
:10079000E06343F064032B6090F8623013449D7C67
:1007A000DB7D01EBC5011B02496803F4E06343F004
:1007B00064030B6021685368194205D0036927223E
:1007C0005A70036904229A71036920225A710369DD
:1007D00080229A7030BC70472CF6030038B502694D
:1007E000D478E4B2E106054624D51023D37063061D
:1007F0001FD504F0040404F0FF03002C5AD0424932
:100800006A6E00230B7085F85D30002A66D0904731
:1008100095F85D30002B61D02B69D0229A702B693E
:1008200095F83B201A712B69012285F85C20022281
:10083000DA7038BD04F0400303F0FF00002BD8D17C
:100840009379DBB203F0600160294ED0937803F016
:10085000100303F0FF01B3B114F0010437D195F890
:100860005C3095F85D1099424BD9591C2B4485F8A2
:100870005C1093F83B3013712B69D0229A702B696E
:100880000222DA70D5E785F86010937943F02003EF
:1008900093712B6995F839101A791F29D2B2C6D8ED
:1008A000194800780028C2D06818013185F839103D
:1008B0000276BCE72A6985F83930C02393702B692A
:1008C000114A1979012111700222DA70B1E7C023AF
:1008D00093702B691A790222DA70AAE701220023A9
:1008E00085F85D2085F83B3096E703F0DF039371D0
:1008F000AB6E23B185F8380095F8390098472A691E
:10090000A4E71471B8E700BF4815FF1F2DE9F047B1
:10091000374FDFF8E0903B68026982B006460093EB
:10092000DDF800800021A025D3789B065BD53B68CD
:100930000193019BC8EB03030F2BF5D949B1102B91
:10094000F2D000209070336980229A7002B0BDE826
:10095000F087726996F8613013440521187A01F026
:10096000A1FB726996F861301344012193F812A03B
:10097000504601F097FB09240021504601F08CFB02
:100980002B46013BFDD10121504601F085FB2B4652
:10099000013BFDD1013CEFD1706996F86110014433
:1009A0004FF4A0720C7A4B7B09EBC4011B0249681F
:1009B00003F4E06343F064030B6096F86230034491
:1009C000997CDB7D09EBC1011B02496803F4E063FC
:1009D00043F064030B60013AFDD13269D3789B0682
:1009E0004FF00101A3D4012002B0BDE8F08700BFA1
:1009F0008C15FF1F2CF60300F0B503691222DA7084
:100A00000269937803F0200385B004460D46002B5D
:100A10005ED0B42393703C4922690B680093009E1A
:100A200005E00B680193019B9B1B042B42D8D378F4
:100A300003F0200303F0FF00002BF2D094F85D30A8
:100A4000002B31D04FF0000E4FF0020C04EB0E03E0
:100A500093F83B3013710B680393039F206907E001
:100A60009B060DD50B680293029BDB1B052B28D838
:100A7000C378DBB203F0020202F0FF06002AEFD0D7
:100A800080F803C02669F378DBB2DF0632462DD446
:100A90009F062BD5DB0731D40EF1010E94F85D30A3
:100AA0005FFA8EFE7345D1D800201DBB002384F869
:100AB0005E3004E09070236980229A70042005B0B3
:100AC000F0BD86702369802204209A7005B0F0BDC5
:100AD00003F0FF06FFF71AFF10B9042005B0F0BDC0
:100AE000236984F85F60B0229A7094E78023B37022
:100AF0000420DAE726698023B370D7E7BEF1000F40
:100B00000CBF02200320F6E78C15FF1F2DE9F041F2
:100B100006690025122780F8385080F83950F770A0
:100B2000D0F810C09CF802E00EF0200E88B0044609
:100B3000884615461E46BEF1000F49D0B4238CF8F6
:100B40000230784B21691A680092DDF800E006E077
:100B50001A6801920198CEEB0000042830D8C878BA
:100B600000F0200000F0FF070028F1D04FEA480213
:100B700042F00102D2B20A711A680292DDF808E06E
:100B8000206906E01A6803920399CEEB010105295A
:100B90002AD8C17801F0020101F0FF070029F1D045
:100BA0004FF0020C80F803C02269D17811F01107D0
:100BB00022D12DBB002E0CBFA0238023937003E015
:100BC0008F70236980229A70384608B0BDE8F081A2
:100BD0000EF0FF07FFF79AFE0028F5D0236984F88E
:100BE0005F70B0229A70ACE7877023698022384624
:100BF0009A7008B0BDE8F081802393700027E3E786
:100C0000012D75D0A021917021690A79BE466746F1
:100C10004FF0A80C1A680492049805E01A6805922F
:100C2000059A121A052A4AD8CA7802F0020202F07E
:100C3000FF08002AF2D0CF702169CA78D2B212F030
:100C4000100F08465AD1920658D5013DEDB2012D3C
:100C500049D0BEF11F0F3BD90A79012DDAD11A68AC
:100C60000692069D05E01A680792079A521B052A0C
:100C700046D8C27802F0020202F0FF01002AF2D048
:100C80000223C3702269D378DBB2D9063AD49B061B
:100C900034D5B023BEF11F0F93703FD8226904EB07
:100CA0000E0312791A760EF1010E5FFA8EFE16B15E
:100CB000236980229A7084F839E0774684E781F8C6
:100CC0000280236980229A70774684F839E07BE7B6
:100CD00004EB0E0291F8048082F818800EF1010EE8
:100CE0005FFA8EFEB9E781F802C021690846B0E7D5
:100CF000A82191702069BE460279B0E7774663E784
:100D00008170DEE71021A023D170013BFDD1226963
:100D1000937803F0F7037746937055E723691B79BF
:100D2000C5E700BF8C15FF1F0148FFF757BD00BF87
:100D3000F807FF1F0148FFF751BD00BF6408FF1F00
:100D40000148FFF74BBD00BF8C07FF1F08B502F03D
:100D500057F8003018BF012008BD00BF0846002129
:100D600002F008B80846642102F056B810B50446EF
:100D700000F036F8014B2360204610BDC4F5030097
:100D800010B5054C204603F0A1F92046034A04495A
:100D9000BDE8104002F074BF4C15FF1FF806FF1F9E
:100DA000E940000010B5054C204603F08FF92046BD
:100DB000034A0449BDE8104002F062BF5015FF1F0E
:100DC000F806FF1FE940000010B4044C0460002244
:100DD000416002725DF8044B704700BFD8F5030014
:100DE00010B5074B0360044600234020E3602361F5
:100DF0006361606000F088FEA060204610BD00BF07
:100E000008F50300F0B5036899B01B6804469847DD
:100E100008B919B0F0BD2368A16862685B68204614
:100E2000984704F10801A2C9BD420E680FD0286896
:100E300043689E4218BF2B1D06D1A9E053F8040B4E
:100E40004268964200F0A480BB421D46F6D1594943
:100E500004A800F09DFC0A223146684600F0CEFC52
:100E6000694604A800F016FD534900F01BFDA36875
:100E70000546197808A800F0ADFC08A9284600F03E
:100E800009FD4E4900F00EFDA368054659780CA8EF
:100E900000F0A0FC0CA9284600F0FCFC474900F03B
:100EA00001FDA3680546997810A800F093FC10A9ED
:100EB000284600F0EFFC414900F0F4FCA368054629
:100EC000D97814A800F086FC14A9284600F0E2FCAA
:100ED00001463B4800F09EFB394800F0C1FB14A8D6
:100EE00000F016FC10A800F013FC0CA800F010FC99
:100EF00008A800F00DFC684600F00AFC04A800F009
:100F000007FCE56823699D421FD055F8043B2D4935
:100F10005E6814A800F03CFC0A22314610A800F0DC
:100F20006DFC10A914A800F0B5FC0146244800F09F
:100F300071FB234800F094FB10A800F0E9FB14A813
:100F400000F0E6FB2369AB42DFD10023A268D11891
:100F5000D25C0A710133042BF8D1A36863221A70A2
:100F6000A36800215970A3689970A368D97062685A
:100F7000082A06D90823A268D154626801339A422C
:100F8000F9D82368A1689B682046984719B0F0BD3E
:100F9000036800221B680272043198472B681B7A91
:100FA000002B7FF436AF236862689B68A1682046F7
:100FB00098472EE7DCF50300F0F50300903F0400AE
:100FC000DC08FF1FF8F503002DE9F8434468D0F86A
:100FD0000080C8EB0405AD100646894605D06B00BD
:100FE0009D4229D96FF0030500E00425284600F052
:100FF00089FD7468D6F800800746C8EB0404D9F868
:101000000030E74218BF3B51A3080DD104343C44E3
:10101000B8F1000F02D0404600F078FD3D44B560C5
:1010200037607460BDE8F883224641463846043490
:1010300031F090FA3C44EEE7B3F1804FD2D213B9CD
:101040001D461F46D9E7ED00D0E700BF00B5036994
:10105000426983B09342019107D00BB119600369D3
:101060000433036103B05DF804FB0C3001A9FFF702
:10107000ABFFF7E710B5054C204603F027F82046F4
:10108000034A0449BDE8104002F0FABD5415FF1FA1
:10109000F806FF1FE9400000F8B5314E314D96F9D2
:1010A00000202B881341DC0752D42F4C94F90030D8
:1010B0000B2B0EDC298841FA03F2D00702D52DE074
:1010C000D2072AD401335BB20C2B41FA03F2F7D1D9
:1010D000237026480268C2F56A3101F5C071B1F586
:1010E000966F17DB4EF660238B42A8BF0B461A445F
:1010F0001F4902600E681F4D1F4A1C4F334442F6C1
:10110000A3760B602E600368934202D900233B60F4
:101110002370F8BD4FF49663E9E72370174A012165
:10112000D05C00F0B9FF94F90030104A144910481F
:1011300031F81350116833702944116002680D4969
:101140002A44013342F6A37502600D602370F8BD96
:101150000A4B0021985C00F09FFF0C233370A4E73A
:10116000D008FF1F5C15FF1F5E15FF1F5815FF1FDE
:101170000C600340006003407FA903007815FF1F47
:101180006015FF1FFF220270427070473F292CD864
:1011900070B58D1E1C2D2AD8184CEC40E40726D5BE
:1011A0000446C8B29FED160A20701D46164600F090
:1011B000E1FE32112B11FF21A270E37061702078E3
:1011C000002100F069FF2078012100F06BFF2378F7
:1011D0000C495C11012051F8242003F01F0300FA90
:1011E00003F3134341F8243070BD00207047A1F190
:1011F0002304032CD4D9002070BD00BFFF113C187C
:10120000000048428415FF1F03783F2B27D8002990
:1012100070B5044624DBB42925DDB4200146A3784B
:10122000E2786070D01A4BF20B6202FB00F21B03F3
:1012300001FB02F103EBE12140F61B5505FB01F137
:101240008D0D72B60C2000F085FE294606462078EA
:1012500000F0FCFC304600F07DFE62B670BD7047C9
:1012600000200146DBE7C8B2D9E700BF38B5282225
:101270000C4605460846002131F0D0F90B220949F9
:10128000204633F0DBF80022E272A86806492061AC
:10129000002301250320E560626260612162A36191
:1012A000E36138BD04F603000AD7233C10B4034CB5
:1012B0000460816042715DF8044B704714F60300CE
:1012C00070B50C4C437916465B000125204684F826
:1012D0003B3084F85E5084F85D50FFF721FA3146C8
:1012E0002046FFF71DFA29462046FFF785FB2846D2
:1012F00070BD00BFF807FF1F70B5134C437901257F
:101300005B000646204684F83B3084F85E5084F843
:101310005D50FFF705FA29462046FFF76DFB2B4687
:101320002A4671792046FFF7F1FB94F8383094F89B
:1013300039209A4205D9E2182B4484F83830107EBF
:1013400070BDFF2070BD00BFF807FF1F38B5044611
:101350002A480D46FFF7F8F920460021FFF7CCFF99
:10136000A0280BD04FF47A7000F0A2FE0021204696
:10137000FFF7C2FFA02801D0002038BD0022227351
:101380003D212046FFF79CFF1E2000F091FE202209
:101390003F212046FFF794FF01E000F089FE002185
:1013A0002046FFF7A9FFA0284FF00A00F5D1322010
:1013B00000F07EFE00223E212046FFF781FF0A203A
:1013C00000F076FE002207212046FFF779FF002279
:1013D0003F212046FFF774FF0A2000F069FE2A46ED
:1013E0003D2125732046FFF76BFF1E2000F060FEB5
:1013F000142000F05DFE012038BD00BFF807FF1F7C
:101400002DE9F0411B4D90F805E001274FEA4E0E03
:10141000804628461E46144685F83BE085F85E70F7
:1014200085F85D70FFF77CF939462846FFF7E4FA46
:101430003B46324698F805102846FFF767FBAEB1E9
:10144000701E54FA80F0621E2C4695F8383095F8DC
:101450003910E618994203F101038ABF84F8383045
:10146000FF23337E02F8013F8242EED10120BDE826
:10147000F08100BFF807FF1FF0B5044683B00025D8
:1014800016460846256031466560A560E560256121
:1014900065616A4606230095ADF80450FFF7B0FF7A
:1014A0009DF803709DF805509DF801009DF800100F
:1014B0009DF802209DF8043041EA002042EA07220C
:1014C00043EA0523083E00B217B21DB2262E2FD8DC
:1014D000DFE806F0142E2E2E2E2E312E2E2E2E2E3E
:1014E0004E2E2E2E2E2E312E2E2E2E2E2E2E2E2EF9
:1014F0002E2E2E2E142E2E2E2E2E14002DF068FEA3
:1015000000222A4B2DF0F4FFC4E9000138462DF0EB
:101510005FFE0022254B2DF0EBFFC4E902012846B7
:101520002DF056FE0022214B2DF0E2FFC4E904010C
:10153000204603B0F0BD2DF04BFE00221C4B2DF0D9
:10154000ADFEC4E9000138462DF042FE0022184BE2
:101550002DF0A4FEC4E9020128462DF039FE002238
:10156000134B2DF09BFEC4E90401204603B0F0BDEF
:101570002DF02EFE00220F4B2DF0BAFFC4E9000122
:1015800038462DF025FE00220A4B2DF0B1FFC4E9AC
:10159000020128462DF01CFE0022064B2DF0A8FF6C
:1015A000C4E90401204603B0F0BD00BF000059406B
:1015B0000000B03F00208C4070B5242688B00C4657
:1015C000054632460846002131F028F8104BA9683C
:1015D0001B680193019B236103226160A26029467D
:1015E0001A2202A82660FFF747FFDDE902012EF06C
:1015F00025F96061DDE904012EF020F9A061DDE943
:1016000006012EF01BF9E061012008B070BD00BF9B
:101610008C15FF1F2DE9F0438C688BB0ECB10025D1
:10162000064689462F462B46212201A9484600F04E
:1016300047F93268202C234628BF2023D2F80480A3
:1016400001A91A4630461D44E41AC0470744002C3D
:10165000E9D138460BB0BDE8F0832746F9E700BF73
:1016600000B5064A036812885B6883B001A9ADF82B
:1016700004200222984703B05DF804FB28F603001B
:1016800010B5036814465B689847204610BD00BF3C
:10169000F0B507468BB0002A33D0012A08BF0A22D2
:1016A00051B3212400E0F4B2B1FBF2F502FB1511B5
:1016B000C8B2092900F1300198BFC8B20AA988BF91
:1016C0003730214488BFC0B201F8240C661E294679
:1016D000002DE8D133B1013CE4B20AAB23442D2202
:1016E00003F8242C3B6801AA11195B683846C4F141
:1016F000220298470BB0F0BD30228DF8252021241E
:10170000E8E70368C9B21B6898470BB0F0BD00BF9B
:1017100010B50446006830F069FB204610BD00BFDC
:1017200038B543688B4201D3012038BD0D460446CD
:101730000131006831F00EF80028F6D0A36884E883
:101740002100002BF0D10370EEE700BFF8B504468E
:10175000154632B9036803B11A700023A36020460E
:10176000F8BD0E461146FFF7DBFF074648B9206873
:1017700010B130F03BFB276000236360A36020467C
:10178000F8BDA5603146206831F0AAFCE7E700BF4C
:1017900038B500230446036043608360037341B19E
:1017A00008460D4632F08CFD294602462046FFF7DA
:1017B000CDFF204638BD00BF38B5054608460C466B
:1017C00032F07EFD214602462846BDE83840FFF74C
:1017D000BDBF00BF10B50446002382B02360636024
:1017E000A36023730A22084601A936F091FD01A9DE
:1017F0002046FFF7E1FF204602B010BD10B50446B9
:1018000000238AB023606360A3602373084601A9A4
:1018100000F082F901A92046FFF7CEFF20460AB06A
:1018200010BD00BF2DE9F84303680F46BB420446D4
:10183000816815460AD85A18974207D2C3EB0709A0
:101840004FF0010835B92046BDE8F8834FF0000895
:10185000002DF8D04E1931462046FFF761FF0028D1
:10186000F1D0B8F1000F0ED02368A0682A4603EB30
:101870000901184400F046F8236800229A55A66032
:101880002046BDE8F8832068A3683946184431F043
:1018900027FCF4E710B58A6809680446FFF7C2FF21
:1018A000204610BD38B5054641B108460C4632F019
:1018B00007FD214602462846FFF7B4FF284638BDFB
:1018C000B2B1A9B138B584689C420ED9E41A013A84
:1018D0000D469442016828BF144619442246284602
:1018E00032F0ACFD00232B5538BD00230B7038BD02
:1018F000704700BF08B5FEF71FFEFEF769FE01F056
:1019000051FCFAE7844641EA000313F003036DD16A
:10191000403A41D351F8043B40F8043B51F8043BB2
:1019200040F8043B51F8043B40F8043B51F8043BB9
:1019300040F8043B51F8043B40F8043B51F8043BA9
:1019400040F8043B51F8043B40F8043B51F8043B99
:1019500040F8043B51F8043B40F8043B51F8043B89
:1019600040F8043B51F8043B40F8043B51F8043B79
:1019700040F8043B51F8043B40F8043B51F8043B69
:1019800040F8043B51F8043B40F8043B51F8043B59
:1019900040F8043B403ABDD2303211D351F8043BF9
:1019A00040F8043B51F8043B40F8043B51F8043B39
:1019B00040F8043B51F8043B40F8043B103AEDD2A8
:1019C0000C3205D351F8043B40F8043B043AF9D2F9
:1019D000043208D0D2071CBF11F8013B00F8013BCC
:1019E00001D30B8803806046704700BF082A13D3D9
:1019F0008B078DD010F003038AD0C3F10403D21AF1
:101A0000DB071CBF11F8013B00F8013B80D331F824
:101A1000023B20F8023B7BE7043AD9D3013A11F8A4
:101A2000013B00F8013BF9D20B7803704B7843700F
:101A30008B7883706046704708B5104C08E02368C7
:101A400059050DD423681A050FD42368DB0411D47B
:101A500023685803F3D500F0C5FC23685905F1D578
:101A600001F0C4FD23681A05EFD501F055FE236887
:101A7000DB04EDD501F0E6FEEAE700BF3480044068
:101A800008B5FFF7D9FF00BF014B10221A8070473D
:101A900000200540704700BF094908B50B6830B108
:101AA0006A461844A2F50052904202D208601846D5
:101AB00008BD2FF03FF80C2303604FF0FF3008BD46
:101AC000D408FF1F002070474FF0FF30704700BF61
:101AD0004FF400534B600020704700BF0120704757
:101AE0004FF0FF30704700BFFEE700BF0078B0FA4C
:101AF00080F04009704700BF01230370704700BFAA
:101B0000FEE700BF30F06AB930F068B930F06EB966
:101B100030F06CB930F06AB9F0B44D1E2E46002496
:101B200000E00134B0FBF2F302FB1300092800F1DE
:101B300030078ABF3730F8B2C0B206F8010F184636
:101B4000002BEED10A1953704CB1107815F8016FC3
:101B500028700133E01A834202F80169F5DB084678
:101B6000F0BC704710B4114B53F8302092F880420B
:101B700034B1012379B182F880305DF8044B7047AD
:101B800003EBC0035B681A6851B922F002021A60C5
:101B90005DF8044B704782F800315DF8044B7047E4
:101BA00042F003021A605DF8044B70472CF6030004
:101BB0001C4A02EBC00301295B6811D004291BD029
:101BC00052F83000002280F8802229B1022920D06A
:101BD000032922D01A6070474FF480721A60704750
:101BE00052F830004FF4A27280F880121A601A681E
:101BF00022F020021A60704752F830104FF4A2729F
:101C0000012081F880021A601A6842F020021A60EE
:101C1000704740F203121A6070474FF481721A60E5
:101C2000704700BF2CF6030030B4054B054D064C41
:101C3000002210211A602A602060196030BC7047B1
:101C400014D0034004D0034000D0034038B5A0F1C5
:101C50004203012B04461FD9002975DD904B1B78E8
:101C6000012505FA03F28A4202D83F2827D938BD58
:101C7000C21E012A2BD9A0F11D02012A73D90E28F8
:101C800056D9A4F12302032A57D9864A126802FBC7
:101C9000011222FA03F320E0814B1B780B2B0AD9A7
:101CA0000C2B1CBF0C3B1941422C084657D0BDE8F9
:101CB000384001F06DBCC3F10C039940F4E72946AC
:101CC000FFF750FF2946BDE83840FFF771BF764A5D
:101CD000126802FB011222FA03F3A21E242A00F268
:101CE000D580DFE812F0CC00C500BE00B700B00020
:101CF000A900A2009B009400D300D300D3008D0064
:101D0000D300D300D300D300D30086007F00780037
:101D10007100D300D300D300D300D3006A00630066
:101D2000D300D300D300D3005C0055004E00470021
:101D300044F28412C240D207A3D55C4A126802FB67
:101D4000011222FA03F3C8E73F2890D80021FFF7D9
:101D500009FF20460121BDE83840FFF729BFBDE853
:101D6000384001F0F7BB524A126802FB011222FA16
:101D700003F3B2E74F49504A0B604FF451731360BD
:101D800038BD4E494E4A0B604FF45173136038BD55
:101D90004C494D4A0B604FF45173136038BD4B49A9
:101DA0004B4A0B604FF45173136038BD49494A4A9E
:101DB0000B604FF45173136038BD4849484A0B60BB
:101DC0004FF45173136038BD4649474A0B6040F2E7
:101DD0004443136038BD4549454A0B6040F24443D3
:101DE000136038BD4349444A0B6040F244431360DA
:101DF00038BD4249424A0B6040F24443136038BD4B
:101E00004049414A0B6040F24443136038BD3F49AA
:101E10003F4A0B6040F24443136038BD3D493E4A9F
:101E20000B6040F24443136038BD3C493C4A0B60B0
:101E300040F24443136038BD3A493B4A0B6040F2DC
:101E40004443136038BD3949394A0B6040F244437A
:101E5000136038BD3749384A0B6040F24443136081
:101E600038BD3649364A0B604FF45173136038BDA4
:101E70003449354A0B604FF45173136038BD334910
:101E8000334A0B6040F24443136038BD3F2C3FF6A9
:101E9000EEAE7F29D4BF00210121204657E700BFC5
:101EA000D808FF1F088003400890034008900B40AB
:101EB00008800B4048900B402CB0044040900B40F1
:101EC00028B0044038900B4024B0044030900B40C0
:101ED00020B0044018800B404CA0044010800B4000
:101EE00048A004401880034008B00440108003401C
:101EF00004B004404080034018C0044038800340D0
:101F000014C0044018900B4004C0044028800340D3
:101F100010B00440208003400CB0044028900B40D7
:101F20000CC0044020900B4008C0044030800340A7
:101F300010C00440488003401CC004401890034077
:101F400034900440109003403090044010900B40B7
:101F500000C0044038B1102828BF1020044AC3B282
:101F6000107813707047024A01231078137070477D
:101F7000D808FF1FDFED387ADFED386A384AB4EE53
:101F8000E70AF1EE10FA47F6122370B446BF1A467C
:101F900002240124002322FA03F107EE901AF8EE3E
:101FA000E77A27EEA67AB4EEC70AF1EE10FA07DA5E
:101FB0000133072BEFD1D20907EE902AF8EEE77A2A
:101FC00087EE807A4FF6FF71C21EF6EE007A77EE4A
:101FD000677AFCEEE77A17EE905A8D4228BF0D46DD
:101FE000012A29462AD9172815D9A0F11D02012A4C
:101FF0002ED90E2826D9A0F12302032A1CD8194A6B
:10200000194E1A4D43EAC403002010603060296065
:10201000136070BC7047164AC24002F0010282F0A1
:102020000105002AE1D0134A134E1448156043EA13
:10203000C40335600160136070BC7047104A114ED4
:10204000114DDFE744F28412C240D207D7D4D2E761
:102050000E4A0F4E0F4DD5E7001BB74000008037EA
:10206000006CDC0200900B4004900B4008900B4089
:102070006006F000008003400480034008800340B5
:1020800000900340049003400890034000800B4000
:1020900004800B4008800B403F2801D8FFF762BD49
:1020A000704700BF3F2801D8FFF782BD704700BFCF
:1020B0002DE9F843054672B6204F214B214A1B6893
:1020C0003C68126862B6520102D5322B88BF0134D7
:1020D00095B3C3F5BB331C4EDFF86490DFF8648022
:1020E000FF334FF47A72A6FB031302FB04F404EBF4
:1020F000931472B6D9F800103A68D8F800E062B6C6
:10210000C1F5BB33FF33A6FB03031EF0806FC4EBA6
:1021100093134FF47A7002D0322988BF013200FB4A
:102120000233B3F57A7F04D3013D05D004F57A7408
:10213000DFE701F037F8DCE7BDE8F8838C15FF1F17
:1021400018E000E004ED00E0ABAAAAAAF8B53E4B07
:102150003E49DFF818C13E4E3E4ADFF814E13E4DDD
:102160003E4C3F4F4FF0006018604FF080501860B9
:102170004FF0005018604FF0804018604FF0004062
:1021800018600020086028234BF6FF71CCF800107F
:10219000CEF8003033600EF5012E13602B60236003
:1021A00005F500253B6004F50024B36207F5002720
:1021B000936206F5012602F501220EF1100E05F6D6
:1021C000E87504F6E87407F57F67103220362B6057
:1021D0002360CEF800303B6013603360214EBB615A
:1021E000936109223260A7F5002706F58056203F4B
:1021F000083638603160BB60F36047F8042C06F5A0
:10220000FD2607F5FE2706F2FC76043730603960BC
:10221000B360FB6046F8042C0836C7F8FC0F06F6DE
:10222000FC76114831602B602360026001F022F9D6
:102230003220FFF73DFF00F0DFFC4FF4AF70BDE848
:10224000F840FFF735BF00BF04E100E00480034021
:10225000148003401C800340248003402C800340F2
:10226000348003400080034000900B40088003400E
:102270000C800340431E032B14D872B60A4951F850
:10228000230068B170B4094C058834F813204668FF
:1022900041F82360521B24F8132062B670BC7047CB
:1022A00062B6704700207047E815FF1F3430FF1FEB
:1022B000013803280BD872B6074B53F8203043B1CE
:1022C00000205B680130002BFBD162B67047002014
:1022D00070471846F9E700BF3C16FF1FF0B472B60E
:1022E0001A491B4E012311F8014B194F9A0024077C
:1022F00042F0010505D556F8324064B156F8352054
:10230000BAB10133052BEED162B6124B00221A701E
:10231000F0BC00F009BD0F4C0F4D217847F832504A
:1023200007EB431308304A1E5860227062B6F0BCB7
:1023300070470849094B0A7847F8353007EBC50361
:102340000830013A58600A7062B6F0E750F80300AE
:102350000000FF1F6516FF1F88004000C8004000F6
:10236000431E032B1DD81B4A400140F0100030B41F
:10237000104472B6184CE25C032A1BD8DFE802F066
:102380000212151703220D88E25410F0080F14BF33
:10239000C823882343EA054308310360416062B6DD
:1023A00030BC704708300222EDE70522EBE7083029
:1023B0000422E8E7094A52F8230038B1084A52F8E3
:1023C0002300416042F8231062B6E9E742F8231087
:1023D000034AF7E70000FF1F7416FF1F3C16FF1F9C
:1023E0004C16FF1F2DE9F04FDFF810A3DFF810B3F4
:1023F00087B044E0AB4F4FEA930807EBC809013EB2
:10240000D9F8042003F00803F6B2A2F1080003F0A3
:10241000FF04002B40F0FC8057F838301B0C99B2B9
:1024200022F8081C002B00F0EA809F4B22F8064C93
:1024300042F8044C53F82620002A00F0CB819B4D33
:1024400055F8263058609A4C45F8260034F8163076
:10245000194424F8161000F047FC002800F0BE8153
:10246000944A954B19F0080F00F1080018BF134665
:10247000C9F8040047F8383008238AF800309AF881
:102480000040E4B261071AD58C4B1B78A3B18C498C
:102490000A7802F0FF0322B1013BDBB20B7003B9F3
:1024A00000BE88490A7802F0FF032AB1013BDBB283
:1024B0000B70002B00F0648104238AF8003004F0D4
:1024C000080303F0FF02002B00F0C6809BF80030E9
:1024D000DBB21E098ED19A08724F57F8321007EB03
:1024E000C200C1F38301013940680C2900F28380E6
:1024F000DFE801F078788181818181814281818169
:1025000007000168704D714B40680193694B47F8B3
:1025100032306F4E686040F2816288B26B4B296046
:102520000024012190421C603C61BC61317000F2CA
:10253000E980B0F5D06F80F00F82B0F5817F00F0B8
:10254000DA8100F26B81802800F00182822840F05D
:10255000D881A8885F4B00F07F00042800F2D28168
:102560005D4A80000344147054701878840740F169
:1025700002831170022174E1544B01931A6832B343
:10258000564B534E564819883478057840298E4664
:1025900045F0020828BF4FF0400E002C84F00104E3
:1025A0003470CEEB01010CBF8824C82407EBC806A9
:1025B00089B285F0010544EA0E447260198047F83B
:1025C000384072440570002966D0019B1A603E4B6A
:1025D0001A88B2F5A06F0ED100219A785970414B3C
:1025E0001A7008E03849404C0D68A54200F0998007
:1025F000304947F832103D4A012313703CE72D4A19
:102600002D4B19F0080F18BF134647F8383033E741
:1026100000F08AFB364A374952F82630002B00F08A
:10262000E48058688C5D42F8260003F10802C9F87E
:102630000420032C05D8DFE804F02C02292602220E
:102640008A551A8819F0080F0CBF8823C82343EA5B
:10265000024347F838300FE7E00700F19480210685
:1026600000F1D280A20706D5234A2449137802201C
:10267000DBB213700870E30602D5204B10221A70EB
:1026800007B0BDE8F08F04228A55DAE705228A55A3
:10269000D7E703228A55D4E7BEF1400F18BF0022C6
:1026A00093E700BF0000FF1FE815FF1F9415FF1FF1
:1026B0003430FF1FC8004000880040007016FF1F24
:1026C000F915FF1F8816FF1F5C16FF1F9015FF1FCF
:1026D000F815FF1FC02007406816FF1FA415FF1F35
:1026E0006416FF1F9820074021090003942007402B
:1026F0003C16FF1F7416FF1F8820074080200740EC
:1027000090200740B0F5106F00F03E8140F2A280AB
:1027100040F62112904240F01C82A44A012313701B
:1027200069E74C68A2498C427FF462AF0178A9291D
:102730007FF45EAF417845297FF45AAF8178C22992
:102740007FF456AFC1786B297FF452AF99489A4E07
:102750000178347881F00105002C41F00201057008
:102760000CBF8820C82084F0010447F8310007EB33
:10277000C10192483470002505244D60047037E78C
:1027800000F0F0FC98E68E4B88488A491A614FF0B9
:10279000020E80F800E08B4F0A708B491960996037
:1027A0008A4E8B4D8B4C9A610D213970FF2131700F
:1027B000DFF848E229702270874D884A8EF80010B1
:1027C0009F27012406F8047C5D600470DA6007B07E
:1027D000BDE8F08F43F82600814D34E6814A47F882
:1027E000380013780133137046E68B5D032B00F23B
:1027F000A78001A252F823F0792400007924000078
:102800004F280000492800006E49714B80220D209E
:1028100008701A70A2077FF52EAF25E740F202324A
:10282000904240F08E81AA8802F07F02042A68D884
:102830006D88002D65D163480291920010440278A2
:1028400042F00202027048E101238B5514E6002396
:102850008B5511E6B0F5086F53D16348634A007891
:102860001070ED888D4280F09B815248047844F0CE
:10287000020C07EBCC01402DAE464FF0010328BF00
:102880004FF0400E4A6002EB0E09CEEB05014FEA15
:102890000E4802930025C82242EA080384F0010290
:1028A00047F83C3035700270DFF814C1424BDFF856
:1028B000048151BBBEF1400F7FF42FAF42F0020202
:1028C00007EBC203DFF8F8E0C3F8049095BB0D04F2
:1028D00045F088059DF8083033704029047009EBF5
:1028E00001034EF832507FF418AF0021404A01989E
:1028F0001180036011E7AA8802F07F02042A40F2E7
:102900002D81304B0F221A7007E74029D6D942F0AB
:1029100002020CEBC200C0F804907DB135489DF86E
:1029200008501D70403988F8004009F140034CF808
:102930003200DBE70D0445F0C805CBE72248EEE79F
:1029400019F0080F0CBF022303238B5594E5274A87
:1029500002211470547084E727494A68002AD0D0B5
:102960006C88B5F804E003E00C314A68002AC8D04E
:102970000B88A342F8D14B887345F5D1240A032C68
:102980000CBF117809896CE7174A0D4CA9781170B2
:1029900004F1800502E00834AC4231D0236A1A0603
:1029A000F9D5606A083800F0BFF9F4E794200740D1
:1029B000010004006416FF1FF815FF1FF915FF1F23
:1029C0000000FF1FC020074088004000882007400B
:1029D0008020074098200740A815FF1FFC15FF1F07
:1029E0009415FF1F6516FF1F7016FF1F6816FF1F47
:1029F000A415FF1FC800400054F803008C200740B6
:102A00006F49704B704A02917049714D714C059637
:102A100003954FF00009884616461D460494286821
:102A200028B1446800F080F92046002CF9D1002339
:102A30002B60039B30681A46002342F8293028B1E6
:102A4000446800F071F92046002CF9D10022326070
:102A5000029A98F800301146002241F8042B049A9B
:102A60000291023B4FF0000122F81910032B07D806
:102A7000DFE803F0470247024FF0010388F8003017
:102A800009F10109B9F1040F05F1040506F1040685
:102A900008F10108C3D1504B059EDFF85491DFF8CF
:102AA000548100211970012518F8013B09F8043BF5
:102AB0001B072BD4AC0044F0020244F003040023B3
:102AC00047F8323047F83430444B994505F1010559
:102AD000EAD13378029383F00105002189468846C4
:102AE0008E460A463E48047844F0020C07EBCC03BD
:102AF0000393029B002B039B5A600CBF8822C822C1
:102B0000CAE64FF0000388F80030B9E700F0ECF8AF
:102B1000AC0007EB451300F10802002837D05A60DB
:102B2000304B47F8343000F0DFF844F0010307EB96
:102B3000C30200F1080100B351602B4A47F833206B
:102B4000B9E7B0F5A06F7FF4DCAE01230025029356
:102B5000C3E740F621229042F7D0D2E66D88002DDF
:102B60007FF4CFAE2148029192001044027822F007
:102B700002020270B1E7022173E6174B44F0010232
:102B80001B7847F83200144A0133137093E7124B55
:102B9000114A1B78AC00013347F834001370C2E7C8
:102BA00040298E464FF0010328BF4FF0400ECEEB78
:102BB00001014FEA0E4802EB0E090025029391E74E
:102BC0004C16FF1FE815FF1F3C16FF1F7416FF1F52
:102BD0009415FF1F3430FF1F6516FF1FD4200740D8
:102BE0006416FF1F88004000C8004000C020074056
:102BF000C420074050F803002DE9F843244C01F0AD
:102C000001F8002204F1880023461A605A60083354
:102C100083424FF00001F8D11E481F4A0368DFF8D5
:102C200090E01E4F1E4D1F4EDFF88880DFF888C0F1
:102C3000DFF8889043F48023036013681A4843F058
:102C400040731360C4F307238EF80030C4F30743C6
:102C50003B70240EFF2302F5C9222C7002F584720A
:102C600088F80030114D8CF800303370012389F85A
:102C7000003070268EF864104FF40014102107F80D
:102C80002C3C2E70046011700EF1640EBDE8F883C8
:102C90000000FF1F3480044000D80040B0200740EF
:102CA000B42007401020074004E100E035E400E0D4
:102CB0009C20074080200740882007409420074040
:102CC00000F020B900F0F4B800F03CB900F024BAEC
:102CD00000F0FEB90846114600F066B9084600F05B
:102CE000EBB900BF704700BF72B60D480268B2FA78
:102CF00082F30B2B10DC4FF00041D94022EA010295
:102D0000026062B6074803EBC303DB00C218002170
:102D1000C15010465160704762B60020704700BF36
:102D2000EC08FF1F9803FF1F0D4B0E4AC31AA2FBAE
:102D300003231B090B2B0CD80B4A127852B972B61D
:102D40000A484FF00041026821FA03F31A43026077
:102D500062B67047064A1278002AF0D0FFF7BEBA72
:102D60009803FF1F398EE3386516FF1FEC08FF1F1D
:102D70007016FF1F2DE9F0411F4D204E2B6882B0C9
:102D80000093009F33786BB380460C460AE02B68B3
:102D90000193019BDB1BA34221D844B300F002FA4C
:102DA0003378FBB10420FFF765FA0028EFD000F17B
:102DB000080300F148021D685C689968DE68C8F87D
:102DC0000C6010339342C8F80050C8F80440C8F8AB
:102DD000081008F11008EED1FFF7A6FF402002B05E
:102DE000BDE8F0814FF0FF3002B0BDE8F081204631
:102DF00002B0BDE8F08100BF8C15FF1F7016FF1FE9
:102E0000034B1B7803F0FF000BB1024BD8887047CF
:102E10007016FF1F3430FF1F2DE9F041224C234D67
:102E2000236882B00093009F2B789BB380460E46A8
:102E300009E023680193019BDB1BB3422FD800F00C
:102E4000B1F92B7833B30320FFF732FA0328F0D817
:102E5000FFF74AFF0028ECD008F1400200F1080318
:102E6000D8F80050D8F80440D8F80810D8F80C600A
:102E7000DE6008F1100890451D605C60996003F108
:102E80001003EDD14024048001460320FFF768FAC7
:102E9000204601E04FF0FF3002B0BDE8F081002095
:102EA00002B0BDE8F08100BF8C15FF1F7016FF1F38
:102EB00070B5124E33788BB1114D286840B14388FC
:102EC000C218147A6CB9FFF72FFF33782C602BB13E
:102ED0000220FFF7CFF928600028F0D14FF0FF3033
:102EE00070BD02880133934202D24380204670BDF8
:102EF000FFF71AFF002320462B6070BD7016FF1FDE
:102F00008416FF1F70B50D4E33788BB10C4D2868B9
:102F100040B1438803441C7A6CB9FFF705FF33784E
:102F20002C602BB10220FFF7A5F928600028F0D112
:102F30004FF0FF3070BD204670BD00BF7016FF1F00
:102F40008416FF1F38B5164D2868E0B10188448803
:102F5000A14213DD03191B7A83B104F10803C218DF
:102F60000C1B002302E012F8011F21B10133A34220
:102F7000F9D1204638BD1C46204638BDFFF7D4FEA7
:102F80000020286038BD074B1B780BB9002038BDE6
:102F90000220FFF76FF928600028D7D1F6E700BFBD
:102FA0008416FF1F7016FF1F2DE9F04F3D4D0122C3
:102FB00083B02A7071B3DFF8F8A0DFF8F880DFF88B
:102FC000E89083460E46DAF80000002835D0364BEC
:102FD00001934488019BC4F14001B14228BF3146AE
:102FE00067180022BFB21A70761A478000F10802F3
:102FF00049B1013C224459441BF8014B02F8014FEE
:103000005945F9D147883F2F09D8284B05221A7016
:10301000002ED8D10020287003B0BDE8F08F4022E8
:10302000224B02800146002401201C70FFF798F912
:10303000CAF80040002EC6D1ECE798F800204AB349
:10304000194B019344F2D95401270BE0013C17D0EE
:1030500099F80020A2B92A7000F0A4F82F7098F80F
:103060000020BAB10120FFF723F90528EED82F7010
:10307000FFF73AFECAF800000028AAD1013CE7D1C8
:103080000199012200234FF0FF300A702B7003B02A
:10309000BDE8F08F00234FF0FF302B7003B0BDE888
:1030A000F08F00BF7816FF1F8016FF1F8816FF1FC6
:1030B0007C16FF1F7016FF1F00B583B002AB012105
:1030C00003F8010D1846FFF76FFF03B05DF804FB2E
:1030D00038B50E4D0E4C2B68012020702BB158884E
:1030E00000232370C0F1400038BD0A4B1B7813B990
:1030F0000020207038BDFFF7DBF80528F8D8FFF76F
:10310000F3FD034628600028E9D1F1E77C16FF1F94
:103110007816FF1F7016FF1F0F4B1B78DBB110B521
:103120000E4C2168B1B14B88A3B10D4800223F2B52
:10313000027007DC07330B4401F1470003F8012F4D
:103140008342FBD140230B800120FFF709F90023C4
:10315000236010BD10BD70477016FF1F7C16FF1F47
:103160008816FF1F0D4B1B78BBB910B50C4C21689E
:1031700003F0FF024B883F2B07DC07330B4401F1C0
:10318000470003F8012F8342FBD140230B8001202D
:10319000FFF7E6F80023236010BD70477816FF1F85
:1031A0007C16FF1F38B52C4C237803B138BD0123A2
:1031B0002370FFF7C7FE002842D100F007FA00286D
:1031C0003BD100F099FA002834D100F02BFB70BB02
:1031D00000F0A4FB40BB00F01DFC10BB00F096FC0F
:1031E000E0B900232370EFF30583002BDED1EFF36A
:1031F000108172B6194B186828B3194C227812BB8B
:1032000045691D60012323700DB3AA6101B962B63F
:1032100000254577836898472570C7E700F028F9AF
:10322000DFE700F023F9D9E700F01EF9D3E700F05B
:1032300019F9CDE700F014F9C7E700F00FF9C0E77E
:10324000FFF750FDB9E70029B0D162B638BD054B94
:103250001D600029DCD1DAE78916FF1F9C16FF1FCD
:10326000A016FF1F9816FF1F10B4EFF3108272B65E
:10327000437F33B9017F012908D0032910D00123EE
:10328000437702B962B65DF8044B7047114C216870
:10329000A1B1114943610B68836108605861EEE791
:1032A0000E4C216881B10E4943610B68836108604F
:1032B00058610C4B4FF080511960E0E7064B4161BB
:1032C000816120601860DAE7054B4161816120600F
:1032D0001860EEE79C16FF1F9816FF1F8C16FF1F45
:1032E0009016FF1F04ED00E010B4047F4160022C33
:1032F000C26003D05DF8044BFFF7B6BF83685DF88A
:10330000044B184770B5EFF3108272B60C4C20686E
:1033100080B10C4E00254369236073B19D6102B9F1
:1033200062B6457783689847EFF3108272B62068DB
:103330000028F0D102B962B670BD3360EFE700BF7C
:103340008C16FF1F9016FF1FFFF7DCBF184A30B422
:103350001468002C27D0036821688B420ED2CB1A48
:1033600000218460C1602360E06010600223037567
:1033700030BC704711688B42144608D3A2685B1AB0
:103380000360002AF6D18260C460A060EEE7D268D4
:10339000C2608460E060C568CB1A0222A860236026
:1033A000027530BC70478460C4601060DEE700BF07
:1033B0009416FF1FF8B5224E34682CB32368002BF7
:1033C0003AD1204F1D4604E03468ECB12368002B4D
:1033D00032D1A36803B1DD602069336003682575CD
:1033E0001B68BB4221D1037F4560022BC46020D003
:1033F000FFF73AFF6368002BE6D023602046FFF713
:10340000A5FF3468002CE1D1EFF3108372B60E4AA9
:1034100000211068116003B962B628B18468FFF713
:1034200095FF20460028F9D1F8BD22460021984793
:10343000E0E783689847DDE7013B2360E4E700BFEE
:103440009416FF1FE9320000A416FF1F024A1368FA
:1034500001331360FFF7AEBF8C15FF1F704700BF2D
:10346000704700BF704700BF704700BF704700BF84
:10347000704700BF30B42948294A2A4B2A4D60249E
:10348000E121047011701B78284C082B30D00A2BD6
:103490002748284937D00C2B0CBF35223D22122358
:1034A0002A60236002600B60234B24491B78244A66
:1034B000BBB101230B601360224B23491B78234AC5
:1034C000012B26D9042B0FD9082B1ED9102B94BF02
:1034D000862387230B6013601D4B01221A7030BCBA
:1034E00070470B601360E7E784230B601360F3E71A
:1034F00000F58E200F490830012213232A60236033
:1035000002600B60D0E73922F7E785230B60136078
:10351000E2E780230B601360DEE700BF0040074056
:1035200001400740F008FF1F08B003400CB0034003
:1035300008B00B400CB00B40A916FF1F20B0034091
:1035400020B00B40F108FF1F24B0034024B00B4013
:10355000A816FF1F0A4A0B49136843F480531360EF
:103560000B7843B1084B80221A7080F30C00074B94
:1035700000B218807047044BC0221A70F5E700BFF4
:103580002C800440A916FF1F21C00C4000C00C4035
:103590000A4A0B49136843F4005313600B7843B194
:1035A000084B80221A7080F30C00074B00B2188081
:1035B0007047044BC0221A70F5E700BF2C8004400E
:1035C000A916FF1F21D00C4000D00C40054A064B25
:1035D00010781B78C0B2DBB2984238BF4030C01AB6
:1035E000704700BFB016FF1FB116FF1FF0B4384B75
:1035F0001A7912F0300F2CD072B6997D01F0FF02CB
:1036000000293DD062B6334F334938780D78334EB8
:103610001C46C0B2EDB2431C402BE17928BF002309
:10362000AB4202F1FF32C9B21CBFF154184612F08E
:10363000FF02F0D12A4B1B68C2B23A704BB1A842CC
:1036400036BFC5F14005401B40192728C4BF0122E1
:103650001A701F49CA78D2B2150616D452060DD573
:103660001B4B1B795B0609D51E4B1F491B680022AB
:103670000A7003B11A70164B3C22DA70F0BC704726
:103680004022D9795A7462B6E3E70B791C06E5D576
:10369000164B174E1C783378E4B2DBB29C420ED046
:1036A000144D01E0A3420AD00133402B28BF002370
:1036B0000879E85CC0B2C871087D0728F2D9DBB28E
:1036C000034933700B79180644BF7C23CB70C5E7E0
:1036D00000A00640B016FF1FB116FF1FF416FF1F13
:1036E000AC16FF1F3817FF1F3417FF1F3C17FF1FB3
:1036F0003517FF1FB416FF1F054A064B10781B78BD
:10370000C0B2DBB2984238BF4030C01A704700BF29
:10371000B017FF1F4517FF1FF0B4384B1A7912F08E
:10372000300F2CD072B6997D01F0FF0200293DD0F8
:1037300062B6334F334938780D78334E1C46C0B2E9
:10374000EDB2431C402BE17928BF0023AB4202F1CC
:10375000FF32C9B21CBFF154184612F0FF02F0D17B
:103760002A4B1B68C2B23A704BB1A84236BFC5F1B2
:103770004005401B40192728C4BF01221A701F4969
:10378000CA78D2B2150616D452060DD51B4B1B793A
:103790005B0609D51E4B1F491B6800220A7003B146
:1037A0001A70164B3C22DA70F0BC70474022D9796F
:1037B0005A7462B6E3E70B791C06E5D5164B174E33
:1037C0001C783378E4B2DBB29C420ED0144D01E099
:1037D000A3420AD00133282B28BF00230879E85CD4
:1037E000C0B2C871087D0728F2D9DBB20349337033
:1037F0000B79180644BF7C23CB70C5E700B00640A8
:10380000B017FF1F4517FF1F7017FF1F4017FF1F3F
:10381000B417FF1F4417FF1FB817FF1FB117FF1F73
:103820004817FF1F054A064B10781B78C0B2DBB261
:10383000984238BF4030C01A704700BFC017FF1F02
:10384000C117FF1F30B42B4B1A7994061FD52A4895
:10385000DA790378294901333F2B0978C8BF00235F
:103860008B42D2B203D0264CD9B2E2540170254A21
:10387000116861B1244A1278D2B2934236BFC2F1C4
:1038800040029B1A9B18272BC4BF01230B70194AB7
:10389000D378DBB2180611D45A060DD5154B1B7917
:1038A0005B0609D5194B1A491B6800220A7003B13F
:1038B0001A70104B2C22DA7030BC7047117909064F
:1038C000EAD5144910480C780178C9B28C420DD061
:1038D0004A1C272A84BF00210A460F4D054C98BF79
:1038E000D1B2AA5CD2B2E2710170D5E76C21D1707D
:1038F000D2E700BF00C00640C017FF1FC117FF1F5F
:10390000EC17FF1FBC17FF1F2D18FF1F3018FF1FDC
:103910002C18FF1F3418FF1FC417FF1F054A064B42
:1039200010781B78C0B2DBB2984238BF4030C01A62
:10393000704700BF3C18FF1F3D18FF1F30B42B4BD2
:103940001A7994061FD52A48DA7903782949013370
:103950003F2B0978C8BF00238B42D2B203D0264C3C
:10396000D9B2E2540170254A116861B1244A127833
:10397000D2B2934236BFC2F140029B1A9B18272B4A
:10398000C4BF01230B70194AD378DBB2180611D4D7
:103990005A060DD5154B1B795B0609D5194B1A49EB
:1039A0001B6800220A7003B11A70104B2C22DA70C7
:1039B00030BC704711790906EAD5144910480C78D3
:1039C0000178C9B28C420DD04A1C272A84BF00213D
:1039D0000A460F4D054C98BFD1B2AA5CD2B2E27133
:1039E0000170D5E76C21D170D2E700BF00D006404E
:1039F0003C18FF1F3D18FF1F6818FF1F3818FF1FD6
:103A0000A918FF1FAC18FF1FA818FF1FB018FF1F31
:103A10004018FF1F054A064B10781B78C0B2DBB276
:103A2000984238BF4030C01A704700BFB818FF1F17
:103A3000B918FF1F30B42B4B1A7994061FD52A48AA
:103A4000DA790378294901333F2B0978C8BF00236D
:103A50008B42D2B203D0264CD9B2E2540170254A2F
:103A6000116861B1244A1278D2B2934236BFC2F1D2
:103A700040029B1A9B18272BC4BF01230B70194AC5
:103A8000D378DBB2180611D45A060DD5154B1B7925
:103A90005B0609D5194B1A491B6800220A7003B14D
:103AA0001A70104B2C22DA7030BC7047117909065D
:103AB000EAD5144910480C780178C9B28C420DD06F
:103AC0004A1C272A84BF00210A460F4D054C98BF87
:103AD000D1B2AA5CD2B2E2710170D5E76C21D1708B
:103AE000D2E700BF00A00E40B818FF1FB918FF1F93
:103AF000E418FF1FB418FF1F2519FF1F2819FF1F07
:103B00002419FF1F2C19FF1FBC18FF1F054A064B65
:103B100010781B78C0B2DBB2984238BF4030C01A70
:103B2000704700BF3419FF1F3519FF1F30B42B4BEE
:103B30001A7994061FD52A48DA790378294901337E
:103B40003F2B0978C8BF00238B42D2B203D0264C4A
:103B5000D9B2E2540170254A116861B1244A127841
:103B6000D2B2934236BFC2F140029B1A9B18272B58
:103B7000C4BF01230B70194AD378DBB2180611D4E5
:103B80005A060DD5154B1B795B0609D5194B1A49F9
:103B90001B6800220A7003B11A70104B2C22DA70D5
:103BA00030BC704711790906EAD5144910480C78E1
:103BB0000178C9B28C420DD04A1C272A84BF00214B
:103BC0000A460F4D054C98BFD1B2AA5CD2B2E27141
:103BD0000170D5E76C21D170D2E700BF00B00E4074
:103BE0003419FF1F3519FF1F6019FF1F3019FF1F00
:103BF000A119FF1FA419FF1FA019FF1FA819FF1F5C
:103C00003819FF1F72B6184A184B194911607022F3
:103C100080211A701A46197013781B06FCD510B54E
:103C2000144B84B0186862B6134B144C984298BF7A
:103C300000EB800001A998BF40000A22FDF76CFF4D
:103C400001A92046002311F8012B01333AB10A2BB8
:103C500020F8022FF7D11623237004B010BD5B00AB
:103C6000DBB2237004B010BD04000240000002402B
:103C7000000007410C0002407F969800D809FF1F02
:103C80000B46014618462CF04FBF00BF2DE9F04F00
:103C9000DFF86C83CA4DD8F80020DFF86893C94B71
:103CA000C5F80090002483B0D2F808A06C6001220F
:103CB00005F11C00AC60EC602C616C61AC61C24F22
:103CC0001A7001F077FAD8F80030C7F800905B68F6
:103CD000BE4AC5F820A007F11C004FF0FF3A7C60F7
:103CE000BC60FC603C617C61BC6101932A60009215
:103CF000C5F824A001F05EFA019BDFF80CB3B44EC6
:103D0000009A3B62D8F800303A60C7F824A0B14F5F
:103D1000C6F80090DB687460ABF1040906F11C0082
:103D2000B460F46034617461B4610192009301F095
:103D300041FA019A009BC6F824A0584607F1140ADC
:103D40003260336202F01EFC29465846C9F87440BE
:103D500089F8784089F87940C9F87C40C9F88040F2
:103D6000C9F88440C9F88840C9F804A04BF8047C1D
:103D700011F092FF984D284602F004FC974B45F84D
:103D8000083CA5F1080403F1140200232846A260B0
:103D90008D49A36784F87C3084F87D30C4F8803086
:103DA000C4F88430C4F88830C4F88C30636011F0F3
:103DB00073FF8B4D2E1F284602F0E4FB002328469C
:103DC0008349C6F804A0736786F8783086F879309E
:103DD000F367C6F88030C6F88430C6F8883045F8F6
:103DE000047C11F059FFDFF824B2ABF1040558460A
:103DF00002F0C8FB002358467549C5F804A06B675C
:103E000085F8783085F87930EB67C5F88030C5F8EB
:103E10008430C5F888304BF8047C11F03DFFD8F8A9
:103E2000003032696F4DC4F87890C6F87490D3F8BA
:103E300008906D4B6D4FDFF8D8B1DFF8D8A10024A2
:103E400042F40052326185E8180005F11C00AC60B4
:103E5000EC602C616C61AC6101F0ACF9D8F8003019
:103E6000C5F820905968604BBC6087E8180007F1DE
:103E70001C00FC603C617C61BC614FF0FF395C4E12
:103E80000091C5F800B0C5F8249001F093F9D8F876
:103E90000020554BD2680099DFF87C81B46086E839
:103EA000180006F11C00F46034617461B461396279
:103EB000C7F800B0C7F824900092AAF1040701F0F7
:103EC00079F9009A3262C6F800B0C6F824905046DC
:103ED00008F1140602F056FB294650467C67BC6781
:103EE00087F87C40C7F88040C7F88440C7F888400E
:103EF000C7F88C407E604AF8048C11F025FF3D4CD9
:103F0000204602F03FFB3C4B44F8083CA4F1080576
:103F100003F1140200233549AA602046AB67EB6722
:103F200085F88030C5F88430C5F88830C5F88C3005
:103F3000C5F890306B6011F007FFDFF8E090A9F151
:103F40000404484602F01EFB0023484628496660E8
:103F50006367A36784F87C30C4F88030C4F8843089
:103F6000C4F88830C4F88C3049F8048C11F0ECFEA9
:103F7000DFF8ACA0AAF10409504602F003FB0023CD
:103F800050461B49C9F80460C9F87430C9F8783044
:103F900089F87C30C9F88030C9F88430C9F8883095
:103FA000C9F88C304AF8048C11F0CEFE134923690D
:103FB0000A68AF67013243F40053002032E000BFCB
:103FC000642DFF1F6C0AFF1F682BFF1F7026040063
:103FD000B42AFF1F90FD0300282CFF1F18080400BF
:103FE0005028FF1F8C2AFF1F080904002428FF1FE8
:103FF0003C2DFF1F7029FF1F48080400942DFF1F50
:10400000A80EFF1FC8080400E02AFF1FB42CFF1FE2
:10401000B0260400DC28FF1FC0FD0300942BFF1F07
:10402000002AFF1F67670A60236103B0BDE8F08FB5
:104030001C4BC9F804301C4802F0FAFA21F0E0FAEF
:104040001A4BC9F804301A4802F0F2FA21F0D8FAF3
:10405000164B6360174802F0EBFA21F0D1FA134BCC
:10406000AB60154802F0E4FA21F0CAFA0F4B7B600E
:10407000124802F0DDFA21F0C3FA0A4B6B601048D7
:1040800002F0D6FA21F0BCFA064B73600D4802F03C
:10409000CFFA21F0B5FA034BA3600B4802F0C8FA3F
:1040A00021F0AEFA20150400E02AFF1F30150400AD
:1040B000002AFF1F942BFF1F7029FF1FDC28FF1F02
:1040C000B42CFF1F5028FF1F282CFF1F054A136820
:1040D000591C10B5044611600BB9FFF7D7FD2046F7
:1040E00010BD00BF942DFF1F114A1368591E022BEB
:1040F00010B50446116001D0204610BD0D4801F0F6
:10410000A3FE0D4801F0A0FE0C4801F09DFE0C48F6
:1041100001F0E0FE0B4801F0DDFE0B4801F0DAFE95
:10412000204610BD22F0B8F922F0FCF9E4E700BF08
:10413000942DFF1FDC2AFF1F4C28FF1FB02CFF1FF0
:10414000D828FF1F902BFF1FFC29FF1F704700BFBF
:104150000B6803601A6801321A60704710B5054C8D
:10416000206800B110BD02460349204600F0ACFBB8
:10417000206810BDB019FF1FF4F803000048704715
:10418000F4F80300426838B50546CAB18368A3B1A4
:10419000002403E0AB680134A3420DD952F8240097
:1041A0000028F8D04368591E012B4160F2D1036802
:1041B0005B6898476A68EDE712B11046FDF7A8FC06
:1041C000EA68CAB1AB68A3B1002403E0AB6801346C
:1041D000A3420DD952F824000028F8D04368591E94
:1041E000012B4160F2D103685B689847EA68EDE70C
:1041F00012B11046FDF78CFC2B6963B100241859ED
:1042000010B1FDF785FC2B690434182CF7D113B1DC
:104210001846FDF77DFC284638BD22F03DF922F016
:1042200081F9C7E722F038F922F07CF9DEE70131A5
:1042300002D021F0E5F9FAE721F08EFD0B681A684B
:1042400070B5013205681A602A680E46012A02F12B
:10425000FF310446296002D02360204670BD284605
:10426000FFF790FF2846FDF751FC33682360204696
:1042700070BD00BF38B5046823685A1E012B05467F
:10428000226001D0284638BD2046FFF77BFF20463C
:10429000FDF73CFC284638BD002A00F010812DE9CE
:1042A000F0470F682FB9A44C2368013323601F46E1
:1042B0000B6083687D1E013BAB42164604467BD3F0
:1042C0006768736857F825E001337360BEF1000F2B
:1042D00050D09A4A1168002945D0974813E0D2F887
:1042E00004C0DCF800303BB9036803F10108C0F8F2
:1042F00000804346CCF80080013B9D4200F0B9802D
:1043000052F8081F79B30B683BB9036803F1010C3D
:10431000C0F800C06346C1F800C0013B9D42DED139
:1043200051680B682BB98448026801320260134659
:104330000A6003F1FF3857F82830A3B1304611F076
:10434000AFF9814657F82800D9F804300133C9F88D
:10435000043043685A1E012B426000F0B18047F8D8
:10436000289057F825E0DEF804305A1E012BCEF8CD
:10437000042078D0A26847F82560CAB100252F46EE
:1043800004E0A2681F600135AA4213D9E36853F81C
:104390002500AE0033440028F5D04268511E012AA2
:1043A0004160EED103685B689847E3683344E8E70F
:1043B000BDE8F087BDE8F0870337B7F1FE5FD0F8BE
:1043C00004A094BFB8004FF0FF30FDF79DFBA36839
:1043D00080464BB16268011F02EB830E52F8040B5A
:1043E00041F8040F9645F9D1BB4208D208EB83038C
:1043F00008EB8701002243F8042B9942FBD1B7F167
:10440000FE5FD4F80C9058D94FF0FF30FDF77CFBDD
:10441000A36886464BB1E268011F02EB830C52F899
:10442000040B41F8040F9445F9D19F4208D90EEBD3
:1044300083030EEB8701002243F8042B9942FBD142
:10444000A760C4F80480C4F80CE0BAF1000F02D0F1
:104450005046FDF75DFBB9F1000F3FF431AF484620
:10446000FDF756FB2CE7DEF8003070465B68984796
:1044700080E70B682BB930480268013202601346AE
:104480000A6003F1FF3857F82830002B3FF46BAF78
:10449000304613F0AFFE814657F82800D9F80430B3
:1044A0000133C9F8043043685A1E012B42607FF47F
:1044B00056AF03685B68984751E7B800A6E77047B6
:1044C00003685B6898474AE721F0E6FF22F02AF884
:1044D00045E721F0E1FF4046FDF71AFB21F0E2F944
:1044E00021F0DAFF22F01EF85FE721F0D5FF22F07D
:1044F00019F83FE721F0D0FF22F014F82FE701313F
:1045000015D021F07DF822F00DF821F079F8013175
:1045100005D021F075F8013103D021F071F821F0B8
:104520001BFC21F019FC013103D021F069F821F0C6
:1045300013FC21F011FC00BFB419FF1F78F9030030
:104540002DE9F041394C23680F46D90706469046BD
:1045500032D5374C2068002837D0DFF8D8E00DE09E
:1045600033B9DEF800100131CEF800100B461160AF
:10457000013B984535D054F8080F30B3036833B980
:10458000DEF800500135CEF800502B460560013BA7
:10459000626898451368E3D1002B40D0F26852F866
:1045A0002810013B69B32FB13B6838465B68BDE812
:1045B000F0411847BDE8F0812046FDF797FA002842
:1045C000C7D02046FDF798FAC3E7F36853F82820D0
:1045D000002AE8D17A6801327A6043F82870BDE891
:1045E000F08102682AB913490B6801330B601A463F
:1045F0000360434602F1FF38F26852F828100029A0
:10460000D1D17968481C786042F828705A1CD1D002
:10461000F2680231796042F82370BDE8F081054804
:104620000168013101600B461160B7E7B819FF1F3F
:1046300078F90300B419FF1F03682BB903490A680E
:1046400001320A6013460260581E7047B419FF1FFA
:104650002DE9F0430F46002183B0054608469146F8
:104660002DF040FB80462FF02BFE461C3046FDF718
:104670004BFA324641460446FDF744F920490020F2
:104680002DF030FB01A9284630F0B8FE019B87EDE4
:10469000000A9D4201D01B7873B1002204233A60C6
:1046A000C9F80030214600202DF01CFB2046FDF704
:1046B0002FFA03B0BDE8F083DFED127AB4EEE70A1B
:1046C000F1EE10FA06DCDFED107AB4EEE70AF1EE57
:1046D00010FAE7D5B5EEC00AF1EE10FA05DD0B4B86
:1046E0003B600423C9F80030DCE76FF400033B6053
:1046F000F7E7013101D020F083FF21F02DFB00BF4F
:10470000F8F80300FFFF7F7FFFFF7FFFFFFF7F7F42
:104710002DE9F0432DED028B0F46002183B00546B5
:10472000084691462DF0DEFA80462FF0C9FD461C62
:104730003046FDF7E9F9324641460446FDF7E2F816
:104740002A4900202DF0CEFA01A9284630F044FE77
:10475000019BB0EE408AF0EE608A9D4287ED000B2F
:1047600001D01B7893B1002000210423C7E9000188
:10477000C9F80030214600202DF0B4FA2046FDF79C
:10478000C7F903B0BDEC028BBDE8F0834FF0FF32F8
:10479000174B51EC100B2BF011F848B94FF0FF32CA
:1047A0006FF4801351EC180B2AF0EAFF0028E1D0D7
:1047B0000022002351EC180B2BF000F840B10C4BF9
:1047C0004FF0FF32C7E900230423C9F80030D1E7D6
:1047D0004FF0FF326FF48013C7E90023F4E7013193
:1047E00001D020F00DFF21F0B7FA00BFF8F8030068
:1047F000FFFFEF7F2DE9F8430C46002107460846EE
:1048000091462DF06FFA80462FF05AFD461C304637
:10481000FDF77AF9324641460546FDF773F8274918
:1048200000202DF05FFA2246384625492EF070FA16
:104830000130012819D9D4E900674FF0FF32214B2C
:10484000304639462AF0BAFFF8B1304639460022E0
:1048500000232AF0B3FF18B31A4B4FF0FF32C4E91C
:1048600000230423C9F8003006E0002000210423BF
:10487000C4E90001C9F80030294600202DF032FAC1
:104880002846BDE8F843FDF743B94FF0FF326FF417
:104890008013304639462AF073FF0028D5D1EBE764
:1048A0004FF0FF326FF48013C4E90023D9E70131E0
:1048B00001D020F0A5FE21F04FFA00BFF8F8030068
:1048C000FCF80300FFFFEF7F08B50346002208460F
:1048D0001A6004492EF098FA00B908BD024820F089
:1048E00071F800BFF8F8030000F90300002303602B
:1048F000704700BF08B50448FDF7F8F810B102484A
:10490000FDF7FAF808BD00BF1828FF1F2DE9F04F8A
:10491000BE4B01602E220646826089B003F1B800CA
:10492000002143F8041B8342B84AFAD1B84B7260A5
:1049300003F1B800002143F8041B83424FF0000448
:10494000B34AF8D1B34BB44DF2605C601C615C615A
:104950009C603361DC601D60FFF710FC02882A80D8
:104960000123AE482246214601F05EF9AB4AAC492C
:104970003046FFF791FC0121AA4822F0ABFAA94A80
:10498000A9493046FFF788FCA84ADFF840B3A84B96
:10499000A84D136023460124104619465460CBF8F5
:1049A0000440C2F808B0CBF80050CBF80830CBF880
:1049B0000C308BF81030CBF81430CBF81830CBF823
:1049C0001C30CBF820308BF824308BF825308BF856
:1049D000643000F019FC954A97493046FFF75CFCBB
:1049E000964B974A1A60012496495C601A463046F5
:1049F000FFF752FC944B954A1A6095495C601A4641
:104A00003046FFF749FC934C934B236001236360CE
:104A1000FFF7A4FBA060224690493046FFF73CFC1C
:104A20008F49DFF8ACA28F4B0B60012200238E4C24
:104A30004A600846CAF80420C1F808A01A46194678
:104A4000CAF80040CAF80830CAF80C308AF81030AA
:104A50008AF811308AF81230CAF81430CAF81830BF
:104A6000CAF81C30CAF82030CAF82430CAF82830F6
:104A7000CAF82C30CAF83030CAF834308AF84330DB
:104A800022F0A0FA764A79493046FFF705FC784AC9
:104A9000DFF84092774B1360012377495360C9F8E0
:104AA000043000231046C2F80890C9F800101A46D6
:104AB0001946C9F80830C9F80C3089F8103089F85F
:104AC000113089F81230C9F81430C9F81830C9F813
:104AD0001C30C9F82030C9F82430C9F82830C9F88A
:104AE0002C30C9F83030C9F8343089F8433022F01E
:104AF00021FA5F4A61493046FFF7CEFB604B614ABD
:104B00001A600120586060491A463046FFF7C4FB1E
:104B10005E4B5F4A1A60012058605E491A46304673
:104B2000FFF7BAFB5C4D5D4B2B60012100236960F0
:104B30000A46AB60EB602B616B61AB61EB612B6292
:104B40006B62AB62EB622B636B63AB63EB632B64F7
:104B50006B64AB64EB642B656B65AB65EB652B66D7
:104B60006B66AB66EB662B676B67AB67EB674C48B6
:104B7000C5F880302946C5F88430C5F88830C5F8B6
:104B80008C30C5F89030C5F89430C5F89830C5F829
:104B90009C30C5F8A030C5F8A430C5F8A830C5F8D9
:104BA000AC30C5F8B030C5F8B430C5F8B830C5F889
:104BB000BC30C5F8C03085F8C43018F069F9384AFF
:104BC00038493046FFF768FB374B384A1A600120F6
:104BD000586037491A463046FFF75EFB354B364A78
:104BE0001A600120586035491A463046FFF754FBD9
:104BF0000121334815F05EFC314A32493046FFF757
:104C00004BFB0121304809F0E9FD65E03826FF1F24
:104C10006027FF1FD01AFF1FE819FF1F241CFF1F6A
:104C2000F82DFF1F401AFF1FC02FFF1F1C1AFF1F68
:104C3000901D0400B42204002C2FFF1F1C28FF1F0E
:104C4000EC200400882FFF1F381AFF1F28210400C2
:104C5000842FFF1FD419FF1F741D0400202FFF1F76
:104C6000441FFF1FE81D0400942204003C2FFF1F77
:104C70002C1FFF1FB41D0400A4220400382FFF1FA7
:104C80004C1EFF1F381E0400342FFF1F281AFF1F61
:104C9000501E0400302FFF1F5C1FFF1F582104000F
:104CA000C019FF1F802FFF1FD825FF1F681E04009B
:104CB000282FFF1F241FFF1F582204007C2FFF1FD7
:104CC0000C1AFF1F242FFF1F2C20FF1FF026FF1F91
:104CD0001C25FF1FE025FF1FB14AB2493046FFF7F0
:104CE000DBFA0121B04822F00DF9AF4AAF49304656
:104CF000FFF7D2FAAE4AAF4B1360AF499160012380
:104D000053601046AC4A4B60AC4C1460002319460B
:104D10009360D360137453619361D36113625362E0
:104D2000936282F8243100F0E5FAA14AA4493046A2
:104D3000FFF7B2FAA34BA44A1A6001205860A349B6
:104D40001A463046FFF7A8FAA14BA24A1A60012082
:104D50005860A1491A463046FFF79EFA9F4CA04B77
:104D6000236001236360FFF7F9F9A06022469D49A3
:104D70003046FFF791FA9C4ADFF8FC829B4B1360A8
:104D800001239B495360C8F8043000231046C2F841
:104D90000880C8F800101A461946C8F80830C8F844
:104DA0000C3088F81030C8F81430C8F81830C8F83B
:104DB0001C30C8F82030C8F82430C8F82830C8F8AB
:104DC0002C30C8F83030C8F83430C8F83830C8F85B
:104DD0003C3088F86C3022F0C7F9834A8549304668
:104DE000FFF75AFA844A854F854B136001238549A2
:104DF00053607B6000231046976039601A4619465D
:104E0000BB60FB603B747B61BB61FB613B627B62AF
:104E1000BB62FB623B637B63BB63FB6387F86C3005
:104E200022F058F9744A78493046FFF735FA774B43
:104E3000774A1A600120586076491A463046FFF7D3
:104E40002BFA754B754A1A600120586074491A464E
:104E50003046FFF721FA734C734B23600121002386
:104E600061600A46A360E36023616361A361E3615B
:104E700023626362A362E36223636363A363E36306
:104E800023646364A364E36423656365A365E365E6
:104E900023666366A366E36623676367A367E367C6
:104EA0006248C4F880302146C4F88430C4F88830A1
:104EB000C4F88C30C4F89030C4F89430C4F89830FA
:104EC000C4F89C30C4F8A030C4F8A430C4F8A830AA
:104ED000C4F8AC30C4F8B030C4F8B430C4F8B8305A
:104EE000C4F8BC30C4F8C03084F8C43001F0B2FF5C
:104EF0004E4A4F493046FFF7CFF94E4B4E4A1A60A3
:104F0000012058604D491A463046FFF7C5F94C4B11
:104F10004C4A1A60012058604B491A463046FFF748
:104F2000BBF9012149480CF0B1FB484A48493046D9
:104F3000FFF7B2F9474B484A1A60012058604749C9
:104F40001A463046FFF7A8F9454B464A1A60012039
:104F5000586045491A463046FFF79EF9164BCDF882
:104F600008B002A93046CDF80CA0CDF810900593FA
:104F7000CDF81880079709F04FFCF3683B48019380
:104F8000FFF75AFB019B43F820B03948D6F80CB024
:104F9000FFF752FB4BF820A03648D6F80CA06DE086
:104FA0002C20FF1FFC2DFF1F001AFF1FC42FFF1F07
:104FB000F419FF1FCC090400FC1AFF1FD0020400E3
:104FC000EC2EFF1F541EFF1F08010400E02DFF1FE1
:104FD000301AFF1F44010400DC2DFF1F381FFF1F84
:104FE000B0090400E02EFF1FF01AFF1F240A04007E
:104FF000B0020400FC2EFF1F501FFF1F6025FF1F83
:10500000F0090400C0020400F82EFF1FE019FF1F82
:10501000740A0400F42EFF1FD025FF1F8C0A040021
:10502000F02EFF1F5C1EFF1F740104004C1AFF1FAF
:10503000D82DFF1FE81AFF1FA40A0400E82EFF1F47
:105040002420FF1F74020400D42DFF1F0C25FF1F16
:10505000E42EFF1F5827FF1F40FF0300902DFF1F66
:10506000441EFF1F6CFF03008C2DFF1F2C2FFF1F02
:105070003C2FFF1F382FFF1F601AFF1FFFF7DCFABE
:105080004AF820903448D6F80C90FFF7D5FA49F842
:1050900020503248F568FFF7CFFA314B45F8203001
:1050A0003048F568FFF7C8FA45F820802E48F568C3
:1050B000FFF7C2FA45F820702C48F568FFF7BCFAF4
:1050C00045F82040304609B0BDE8F08F013141D0AD
:1050D00020F096FA04460D462548FFF737F820469B
:1050E0002946F3E704460D462248FFF72FF82046ED
:1050F0002946EBE704460D461F48FFF727F82046F0
:105100002946E3E704460D461C48FFF71FF82046F2
:105110002946DBE704460D461948FFF717F82046F5
:105120002946D3E704460D461648FFF70FF82046F8
:105130002946CBE704460D461348FFF707F82046FB
:105140002946C3E704460D461048FEF7FFFF2046F8
:105150002946BBE720F000FE802FFF1FEC2EFF1F2B
:10516000FC1AFF1FFC2EFF1FF82EFF1FD82DFF1F5C
:10517000501FFF1F2C1FFF1F441FFF1FD419FF1FAD
:105180001C1AFF1F381FFF1FF419FF1FF01AFF1F03
:1051900010B5054C02212046FFF7B8FB034A044B2B
:1051A00014601C6010BD00BF2426FF1FAC19FF1F38
:1051B000BC19FF1F70B50023104D03602B68044617
:1051C000C3B10F4E336823602A6893420DD00D4B54
:1051D0001B68DB0706D533681A6801321A6020465F
:1051E000236070BDFFF786FBF5E71A6801321A608D
:1051F000204670BDFFF7CCFFE3E700BFAC19FF1FEF
:10520000BC19FF1F1828FF1F38B585680446002DFC
:105210002ED02E22214B85F82420A2681968204B1D
:10522000AB602C200023EB602B74013982F8250041
:10523000A26811F8010F1A440133242B82F82600CA
:10524000F6D1184B196800230139A26811F8010F33
:105250001A4401331A2B82F84A00F6D1A368124A85
:1052600012495A61042005229861D9611A6238BD39
:105270006820FCF747FC0E4B45608560C5600574EF
:1052800045618561C561056280F8245080F825502C
:1052900080F86450A06003600546BAE7680AFF1F03
:1052A00000F60300600AFF1F00FA030008FA03007B
:1052B000B422040010B504468068084B236010B186
:1052C00003685B6898472046FEF740FF204610BD04
:1052D0002046FEF73BFF20F093F900BF901D04002D
:1052E00010B50446FFF7E6FF2046FCF70FFC20460A
:1052F00010BD00BF38B584684CB3204A204B1168FC
:10530000A360224600232E252C20E36023746562CF
:1053100042F8280F013904F1B80311F8010F42F8DF
:10532000040F9A42F9D1174A126804F59070013AB5
:1053300012F8011F43F8041F8342F9D1124B134A9C
:10534000636104210523A161E261236238BD054642
:105350004FF49470FCF7D6FB0D4B44608460C4603E
:10536000047444618461C46104624462846280F8AC
:105370002441A86003600446BFE700BF680AFF1F1E
:1053800000F60300600AFF1F10FA030024FA03006E
:10539000D002040010B504468068084B236010B1A9
:1053A00003685B6898472046FEF7D0FE204610BD94
:1053B0002046FEF7CBFE20F023F900BFCC09040005
:1053C00010B50446FFF7E6FF2046FCF79FFB20469A
:1053D00010BD00BFC36810B425201C05087045BF70
:1053E0002B20487001310231580502D52320087066
:1053F00001312A202E2448700C7003F4827092B977
:10540000042801F1020113D0B0F5807F18D013F405
:10541000804F14BF472367230B70013100230B70AB
:105420005DF8044B704704288A7001F10301EBD149
:1054300066230B70013100230B705DF8044B70473D
:1054400013F4804F14BF452365230B7001310023F3
:105450000B705DF8044B70470139F0B55C1EA1423A
:1054600028BF21468446B9B31344054600EB010E1C
:1054700001E0B74229D115F8016B13F8017D75459C
:1054800004F1FF34F5D1B81BB0FA80F04009F4B153
:10549000B74226D113191CF80110541C01E08842B0
:1054A00018D1A342187803F1FF33F8D1401AB0FAAB
:1054B00080F040094BB2002B06DD13788B428CBF85
:1054C000002000F00100F0BDF0BD54B920461CF8EA
:1054D0000110EFE70020EDE7002CDBD1017801207F
:1054E000E8E71CF801100020E4E700BF126852F85A
:1054F0000C3CFFF7B1BF00BF0868B0F1004F08B522
:105500001BD290420ED9520090420BD2B2F1004F02
:105510000DD36FF000430B604FF00040BDE8084032
:10552000FCF7F0BA0130BDE80840FCF7EBBA0A60BE
:10553000501CBDE80840FCF7E5BA01481FF0FCF933
:105540009CFB030030B583B00F290191154604463A
:105550000FD800680B463BB1012B12D01A462946E2
:105560002DF05CF8019B206863600022C25403B0F8
:1055700030BD002201A9FFF7BFFF019B2060A3609F
:10558000E9E70570019B2068EEE700BF884233D051
:105590002DE9F04180464E6858F8083B984514BF05
:1055A00082680F22B24282B00F4605460ED31846DB
:1055B00036B1012E39681BD03246FCF7A3F92868B2
:1055C0006E600022825502B0BDE8F08102A941F868
:1055D000046DFFF791FF04462868404501D0FCF7B1
:1055E00095FA019A2C602046AA60002EE8D0E0E7E8
:1055F0000A7802702868E3E7704700BF2DE9F04F92
:1056000083B00446DDF8308040682768914604F195
:10561000080A08EB0002C9EB0202BA45A0EB010040
:1056200001920E46C9EB000514BFA2680F2201A922
:1056300020469B46FFF760FF07462EB1012E2168EA
:105640002AD03246FCF75EF9BBF1000F0BD0B8F15F
:10565000000F08D0B8F1010F07EB060022D0594621
:105660004246FCF74FF965B1226806EB0803012DAD
:105670004E4407EB030002EB060110D02A46FCF76C
:1056800041F92068824501D0FCF740FA019B276070
:10569000A36003B0BDE8F08F0B780370D4E7925D90
:1056A000FA54EEE79BF80030BB55DCE7F8B54368E9
:1056B00014465A1A121B05460CD05CB103680E1929
:1056C000012A03EB010003EB060709D039462CF051
:1056D00041FF6B681A1B2B686A6000219954F8BD62
:1056E0009A5D5A546B68F5E770B5044625464068E4
:1056F00055F8086B82B0814234BF03460B460191D6
:1057000038BF0190B54214BFA2680F229A420BD055
:105710000CD30F2B0AD8B54206D0421CF0B122BBE5
:105720003046FCF7F3F9256002B070BD01A92046B0
:10573000FFF7E2FE94E80A0006465A1C53B182B90C
:105740000846854201D0FCF7E1F9019B2660A36081
:1057500002B070BD0B7803702068F2E733782372D3
:10576000DEE7FCF7CFF82068EBE731462846FCF788
:10577000C9F8D5E70246F0B552F8083B46689342AF
:1057800018BF826806F1010508BF0F22954283B059
:1057900004460F4607D900230122009231461A46DB
:1057A000FFF72CFF23689F552368656000225A5538
:1057B00003B0F0BD2DE9F041054640686FF00044AC
:1057C000241A82B01444A3429DF8208040D80F468A
:1057D00029461C181E4651F8083B8B4218BFA96881
:1057E000A4EB020408BF0F21A14221D3C01B801AE1
:1057F0000DD0B2420BD03B44012803EB060E03EB65
:10580000020121D0024670462CF0A4FE2B6846B15E
:10581000012E03EB070013D0324641462CF0FEFE6A
:105820002B686C60002228461A5502B0BDE8F08152
:105830000023009639462846FFF7E0FE2B68E6E78E
:1058400003F807802B68ECE79A5C9A552B68DEE733
:1058500001481FF071F800BF44FC030010B5446814
:105860008C4282B007D301D802B010BD621AFFF794
:105870001DFF02B010BD00920B1B00222146FFF756
:1058800099FF02B010BD00BF2DE9F04F044685B06E
:10589000D4F804E00E9E6FF00040CEEB0000104400
:1058A000864200F2B7801746224606EB0E0552F8F4
:1058B000088B904518BFA268A5EB070508BF0F220B
:1058C000AA428A4658D3C1EB0E094345C7EB0909E2
:1058D00008EB010B21D2B9F1000F0ED0B7420CD06A
:1058E000B9F1010F0BEB06000BEB070100F0828012
:1058F0004A4603932CF02EFE039B36B1012E41D075
:10590000324619465846FBF7FDFF236865600022C2
:1059100020465A5505B0BDE8F08FC6447345DAD825
:1059200056B1B7423ED3012E40D0194632465846B2
:1059300003932CF00FFE039BB9F1000FE5D0B742A3
:10594000E3D0B9F1010F0BEB06000BEB07014CD0D4
:105950004A4603932CF0FEFD039BB742D5D20BEBD6
:10596000070299198A4211D3012E0BD032461946EB
:1059700058462CF0EFFDC8E700963A462046FFF760
:105980003DFEC2E71B7808F80A30BEE7934214D305
:10599000F71B012E03EB070123D032465846FBF7D5
:1059A000B1FFB2E7B9F1000FCBD1D8E71A7808F808
:1059B0000A20B9F1000FD0D0C1E7D71A012F0CD0BF
:1059C000EFB9F21B012A0BEB07000BEB06011CD011
:1059D000002A9AD0FBF796FF97E71B7808F80A3061
:1059E000EFE7DB5D08F80A308FE71BF807200BF8BC
:1059F0000620B2E71BF807200BF806207DE71946C2
:105A00003A4658462CF0A6FDDBE71BF806300BF8AB
:105A100007307AE701481EF08FFF00BF94FC0300B7
:105A2000F0B54768044650F8085B854218BFA06887
:105A300007EB020608BF0F20864283B00DD832B1B3
:105A4000012A05EB070011D0FBF75CFF25686660B3
:105A500000232046AB5503B0F0BD00920B46002258
:105A600039462046FFF7CAFD2568F0E70B78EB556D
:105A70002568ECE770B51D4643689D4214D85C1B51
:105A8000944228BF14464CB10368012C0E4603EB28
:105A9000050105D030462246FBF734FF204670BD95
:105AA0005B5D3370204670BD2A46024902481EF0F5
:105AB0005BFF00BFE0FC0300B4FB0300884233D06F
:105AC0002DE9F043064685B056F8082B9642054668
:105AD0000C4611D00B46806853F8081B8B4224D02B
